:020000040800F2
:1000000000200020FD2A0008890700088B0700084F
:1000100000000000000000000000000000000000E0
:100020000000000000000000000000008D07000834
:1000300000000000000000008F0700089107000882
:100040004D2B00084D2B00084D2B00084D2B0008B0
:100050004D2B00084D2B00084D2B00084D2B0008A0
:10006000000000004D2B00084D2B00084D2B000810
:100070004D2B00084D2B0008000000004D2B000800
:100080000000000000000000000000000000000070
:100090004D2B0008000000004D2B00084D2B0008E0
:1000A000000000004D2B00080000000000000000D0
:1000B000990700084D2B0008000000000000000018
:1000C00003B47146490840004900095E49008E4466
:1000D00003BC7047002243088B4274D303098B4250
:1000E0005FD3030A8B4244D3030B8B4228D3030C08
:1000F0008B420DD3FF22090212BA030C8B4202D3AA
:100100001212090265D0030B8B4219D300E0090AD1
:10011000C30B8B4201D3CB03C01A5241830B8B42DA
:1001200001D38B03C01A5241430B8B4201D34B03C3
:10013000C01A5241030B8B4201D30B03C01A524128
:10014000C30A8B4201D3CB02C01A5241830A8B42AD
:1001500001D38B02C01A5241430A8B4201D34B0296
:10016000C01A5241030A8B4201D30B02C01A5241FA
:10017000CDD2C3098B4201D3CB01C01A52418309AE
:100180008B4201D38B01C01A524143098B4201D3E8
:100190004B01C01A524103098B4201D30B01C01A13
:1001A0005241C3088B4201D3CB00C01A524183088D
:1001B0008B4201D38B00C01A524143088B4201D3BA
:1001C0004B00C01A5241411A00D20146524110461A
:1001D0007047FFE701B5002000F006F802BDC046F9
:1001E0000029F7D076E770477047C046002B11D141
:1001F000002A0FD1002900D1002802D00021C943D4
:10020000080007B4024802A14018029003BDC0468E
:10021000D9FFFFFF03B4684601B5029803F062F905
:10022000019B9E4602B00CBC7047C0461C210123B6
:100230001B04984201D3000C10391B0A984201D3C9
:10024000000A08391B09984201D30009043902A2A7
:10025000105C40187047C04604030202010101010E
:10026000000000000000000010B5002903D1FFF7D6
:10027000DDFF203002E00800FFF7D8FF10BDC046C8
:1002800010B5064C2378002B07D1054B002B02D06C
:10029000044800E000BF0123237010BD740000205B
:1002A000000000004C520008044B10B5002B03D096
:1002B0000349044800E000BF10BDC0460000000034
:1002C000780000204C52000810B5A02001228021A7
:1002D000C00500F095FD012010BD10B5A020012241
:1002E0004021C00500F08CFD022010BD10B5A024F7
:1002F000E40500224021200000F082FD142000F0DF
:10030000B7FB00228021200000F07AFD042010BD00
:1003100010B5A024E40500224021200000F070FD6B
:10032000142000F0A5FB00228021200000F068FDD1
:100330002E220349034801F0EBFD052010BDC04605
:10034000745300084001002010B5024800F0C8F9BD
:10035000032010BD0000B44210B5A024E405002223
:100360004021200000F04CFD142000F081FB002211
:100370008021200000F044FD044800F0B1F91B2268
:100380000349044801F0C4FD002010BD00003442C0
:10039000A453000840010020014B00221A7070474E
:1003A00000000020014B18707047C046010000207B
:1003B00010B54200121892000848821808490948EE
:1003C00002F0F8FB021E00DC10BD07482023836703
:1003D00092B24433034902F0F3F9F5E720530008E1
:1003E00064520008900000204001002010B50F4B1F
:1003F0001A78052A19D80E4B1978052915D85300F3
:100400009B185B005B189B000A4A9B58002B0CD082
:10041000094A1278914208D09847044B1870044B4F
:100420001A78054B1A70FFF7C3FF10BD00000020BB
:1004300001000020905200080200002006280FD87A
:100440008000094B1B589F46012070470320FCE7A2
:100450000420FAE70620F8E70620F6E70520F4E78F
:100460000620F2E70220F0E77052000830B583B0B2
:10047000040000236A46D3716433012269460731C0
:1004800002F020FA6B46DB79002B01D00A2B01D158
:1004900003B030BD6B46DD1D322301222900200050
:1004A00002F08EF9322302220C49200002F088F972
:1004B0002B7818003038C0B206280AD9372BE7D17C
:1004C000074B18780428E3D0FFF7B8FFFFF76AFF5F
:1004D000DEE72870FFF766FFDAE7C0468C520008B7
:1004E0000000002070B586B01422002101A802F09F
:1004F00059FB124BDA6A01263243DA62DB6A334077
:100500000093009BA025ED050022C021280000F0EB
:1005100077FC3023019300240294039401A928005E
:1005200000F0AEFBC023019302960394049401A94A
:10053000280000F0A5FB06B070BDC04600100240C8
:1005400010B51448144B0360144B436000238360C0
:100550000122C260036143618361C361036200F0F1
:1005600055FC00280CD100210A4800F0B5FC0028F9
:1005700009D10021074800F0DBFC002806D110BD9E
:1005800000F03EF8EFE700F03BF8F2E700F038F853
:10059000F5E7C046B0000020005400405B3D30004D
:1005A00010B586B004001422002101A802F0FAFA66
:1005B0002268114B9A4201D006B010BD0F4CE26A7E
:1005C00001231A43E262E26A1A400092009AC022B2
:1005D000D20001921222029203930F3A04920593E1
:1005E000A02001A9C00500F04BFBA26B80239B0358
:1005F0001343A363E0E7C0460054004000100240EC
:1006000072B6FEE700B599B0342200210BA802F0C3
:10061000C9FA1422002106A802F0C4FA1822002107
:10062000684602F0BFFA1A490B681A4A1A4080233A
:100630001B0113430B6002230B93013B0E930F33FB
:100640000F93002314930BA800F0F4FC002819D199
:100650000F2306930E3B07930023089309930A93F5
:10066000002106A800F074FF00280DD10A23009392
:10067000002302930493684601F07CF8002805D11A
:1006800019B000BDFFF7BCFFFFF7BAFFFFF7B8FFD7
:1006900000700040FFE7FFFF00B583B000F0C2F933
:1006A000FFF77AFEFFF7AEFFFFF71CFFFFF748FFEB
:1006B00000F03CF900F0D2F800F00AF80348FFF728
:1006C000D5FE01A8FFF792FEF8E7C04640010020E2
:1006D00010B50021014801F04BFA10BD00010020C7
:1006E000F8B5041C1B4B5A68501CDD680135684383
:1006F00004F0B6FC02000B000020174903F018FFBD
:1007000004F01CFD061C280003F094FB311C03F0D0
:100710006BFA04F0CBFC114A114B04F0FFF9060010
:100720000F00211C201C02F0A9FF0E4903F044F920
:1007300004F0BCFC00220C4B03F0BEFB02000B00DB
:100740003000390004F0EAF904F054FC8023DB05A2
:100750005863F8BD0001002080846E41FCA9F1D2ED
:100760004D62503F000034430000E03F054B5A6BA0
:1007700001210A435A63996B802252050A439A6306
:100780007047C04600100240FEE7FEE77047704722
:1007900010B500F05BF910BD10B5024801F096FCF1
:1007A00010BDC0464001002010B503000C4A0D49A1
:1007B000521A0D490968002907D00B490868C31867
:1007C000934206D8084A136010BD074907480860DD
:1007D000F3E702F0BDF90C23036001204042F3E788
:1007E0000020002000040000FC000020D8010020B0
:1007F0007047000002688023DB059A4200D07047F2
:10080000024A936B01210B439363F8E70010024007
:1008100010B586B004001422002101A802F0C2F92C
:1008200022688023DB059A4201D006B010BD0A4A37
:10083000D16A01231943D162D26A13400093009B0D
:1008400003230193013B02930593A02001A9C00556
:1008500000F016FAE9E7C0460010024000B58BB080
:100860001022002106A802F09DF90822002104A808
:1008700002F098F910220021684602F093F9294805
:100880008023DB0503600323436000238360264A43
:10089000C26003618033436101F021F900282FD148
:1008A00080235B01069306A91E4801F03BFA00284D
:1008B00029D11C4801F038F9002827D100230493DE
:1008C000059304A9174801F0B1FA002821D160234B
:1008D0000093002301930293039300226946114879
:1008E00001F0A8F9002817D1042269460D4801F04B
:1008F000A1F9002813D10B48FFF78AFF0BB000BD08
:10090000FFF77EFECCE7FFF77BFED2E7FFF778FE2E
:10091000D4E7FFF775FEDAE7FFF772FEE4E7FFF7CB
:100920006FFEE8E7000100203F9C000010B50C4876
:100930000C4B0360E1235B02436000238360C360D0
:1009400003610C2242618361C3610362436202F06E
:100950009DF8002800D110BDFFF752FEFBE7C0460E
:10096000400100200044004010B586B0040014226D
:10097000002101A802F016F92268144B9A4201D016
:1009800006B010BD124B996B802292020A439A6303
:10099000D96A01221143D962DB6A1A400092009B96
:1009A0000C2301930A3B0293013304930133059313
:1009B000A02001A9C00500F063F9002200211C203D
:1009C00000F068F81C2000F095F8D9E700440040DA
:1009D0000010024010B504000F4B1978FA20800077
:1009E000FFF778FB01000D4B1868FFF773FB00F071
:1009F0008DF800280DD1032C01D901200AE0013027
:100A000000222100404200F045F8054B1C60002008
:100A100000E0012010BDC0460800002004000020B6
:100A20000C00002010B5084A136840210B431360E6
:100A30000020FFF7CFFF041E02D00124200010BDCC
:100A4000FFF794FEFAE7C04600200240034A11680F
:100A5000034B1B785B1813607047C046C40100202D
:100A600008000020014B18687047C046C4010020F0
:100A700070B50400FFF7F6FF0500631C02D0044BBD
:100A80001B78E418FFF7EEFF401BA042FAD370BDBD
:100A90000800002070B5002811DB8308134EC03316
:100AA0009B009D5903242040C000FF221400844075
:100AB000A54389010A4082402A439A5170BD0F2301
:100AC0000340083B9B0806339B00094A9446634455
:100AD0005C6803221040C000FC3215008540AC4326
:100AE00089010A40824022435A60E7E700E100E0C2
:100AF00000ED00E0002805DB1F2318401E3B83406B
:100B0000014A13607047C04600E100E001388023CD
:100B10005B0498420FD2094A50600948036A1B02DD
:100B20001B0AC02109060B430362002393600733AD
:100B30001360002070470120FCE7C04610E000E091
:100B400000ED00E030B51C25446C25400124AC408C
:100B5000056C6C60046863608368102B04D00368C4
:100B600099600368DA6030BD03689A600368D960F1
:100B7000F9E770B504002420205C012832D024203D
:100B8000012525540130205C012804D024230022B3
:100B9000E254022070BD2430013525540020E0636A
:100BA000256828680126B04328602000FFF7CAFFA7
:100BB000236B002B0BD0226813680E210B431360AC
:100BC0002268136801210B4313600020E2E72268CA
:100BD000136804218B4313602268136806310B43AA
:100BE0001360EDE70220D5E710B52523C35C022B87
:100BF00006D00423C36320330022C254012010BD59
:100C0000026813680E218B43136001680A68012390
:100C10009A430A601C22416C0A40016C1C009440FB
:100C20004C602522835423330022C2540020E6E77F
:100C300010B52523C35C022B03D00423C36301201A
:100C400010BD026813680E218B43136001680A68A7
:100C500001239A430A601C22416C0A40016C1C006B
:100C600094404C602522835423330022C254836B6A
:100C7000002B02D098470020E2E70020E0E70000C8
:100C8000F0B5002357E084685F000326BE40B443FC
:100C90002600CC68BC4034438460446894434A686E
:100CA0001609012232409A402243426053E0DC0898
:100CB0000834A400265805321A4092000F279740A6
:100CC000BE430F6997403A003243225057E0052651
:100CD00000E00026A64034003C4302329200424E1F
:100CE0009451424A1468EA432600AE434F68FF031A
:100CF00001D52C4326003D4C266064682600164032
:100D00004F68BF0301D52C432600384C6660A468A9
:100D1000260016404F68FF0201D52C432600334CB5
:100D2000A660E46822404E68B60201D52A0022433C
:100D30002E4CE26001330C682200DA4053D00122CD
:100D40009A40250015401442F4D003244E683440E4
:100D5000013C012C97D903224C682240032A09D078
:100D6000C2685E000324B440A24314008A68B24003
:100D70002243C26003224C682240022A97D00468B2
:100D80005E0003221700B740BC434F683A40B240B0
:100D900022430260C02292024C681442CAD0144C12
:100DA000626B0126324362639A08941CA4000E4EC3
:100DB000A75903241C40A4000F26A640B743A02631
:100DC000F605B04285D00B4EB04208D00A4EB04274
:100DD00007D00A4EB04200D179E706267AE701260D
:100DE00078E7022676E7F0BD0000014000040140EC
:100DF000001002400004005000080050001C005089
:100E0000002A01D0816170478162FCE710B5041EA1
:100E100059D04123C35C002B43D041232422E25408
:100E20002268136801218B4313602268274B616895
:100E30000B4013612268936825490B409360E36877
:100E4000012B34D0226884231B02A1680B439360DA
:100E5000E368022B32D0226851681E4B0B4353606B
:100E60002268D3681A490B40D3602369626913432F
:100E7000A269120221681343CB602268E369216AE8
:100E80000B4313602268136801210B431360002396
:100E9000636441221F31A15423630132A354002013
:100EA00010BD40330022C254FFF77AFBB5E7226839
:100EB00080231B02A1680B439360C9E7236880224B
:100EC00012015A60C7E70120EAE7C046FFFFFFF0C2
:100ED000FF7FFFFF00800002F0B54123C35C202BA1
:100EE00020D12033C35C012B1ED0402401220255A7
:100EF00041252423435506683368934333600668CD
:100F000033680A4F3B4033600668336819433160E9
:100F100001680B6813430B602023435500230355DE
:100F20000020F0BD0220FCE70220FAE7FFEFFFFF00
:100F3000F0B54123C35C202B1ED12033C35C012BB1
:100F40001CD0402401220255412524234355066824
:100F500033689343336006683368094F3B400902A6
:100F60001943316001680B6813430B60202343551C
:100F7000002303550020F0BD0220FCE70220FAE721
:100F8000FFF0FFFF10B5264BDA680C231340082B47
:100F900042D00C2B11D0042B09D0214B5A68520B94
:100FA00007231340013380200002984010BD1C4BE2
:100FB0001B68DB0632D51B48F8E7910C0F230B406A
:100FC0001949C85C920D03231A40541C144BDB686A
:100FD000DB0309D5154A0023002102F055FA22004F
:100FE0000023FFF703F9E1E70D4B1B68DB0609D58A
:100FF0000C4A0023002102F047FA22000023FFF7E9
:10100000F5F8D3E70A4A0023002102F03DFA220056
:101010000023FFF7EBF8C9E70448C7E70448C5E732
:101020000010024000093D00D853000800127A0069
:101030000024F400F0B583B0041E00D165E2C54B76
:10104000DA680C251540DE6880235B021E400368C9
:10105000DB0736D5082D2CD00C2D28D063688022D4
:101060005202934255D0A022D202934258D0B94B9B
:101070001A68B9490A401A601A68802149020A4070
:101080000192019A1A68B5490A401A606368002BF8
:1010900052D0FFF7E7FC0700AE4B1B689B0310D450
:1010A000FFF7E0FCC01B6428F6D903202EE2002ED7
:1010B000D4D0A84B1B689B0303D56368002B00D1D9
:1010C00026E223689B076DD5E3689A0605D5A148FB
:1010D000026820210A4302608B43042D3CD00C2D72
:1010E00038D0002B00D1B0E09A490A680920824329
:1010F00013430B60FFF7B6FC0600964B1B685B07BB
:1011000000D599E0FFF7AEFC801B0228F5D903203B
:10111000FCE1904A116880235B020B431360B5E742
:101120008C4B19688022D2020A431A601968802207
:1011300052020A431A60A9E7FFF794FC0700854BA7
:101140001B689B03BDD5FFF78DFCC01B6428F6D937
:101150000320DBE1002EC4D17E4A1268520702D57B
:10116000002B00D1D6E17B4E72687D490A4021698F
:1011700009020A437260326809218A4313433360CB
:10118000FFF700FFF26812090F231340754AD35C82
:10119000D840754B1860754B1868FFF71BFC00288A
:1011A00000D0B3E12368DB062DD5002D60D1694B5B
:1011B0001B689B0503D5A369002B00D1ACE1654AF0
:1011C00053686B490B40216A0B43536053681B0201
:1011D0001B0AE16909060B435360236A590B01316D
:1011E00080231B028B40D16809090F220A405D4908
:1011F0008A5CD3405C4A13605C4B1868FFF7EAFBDB
:10120000002800D082E123681B077DD56369002B8D
:1012100067D0504A136D01210B431365FFF722FC81
:1012200006004C4B1B6D9B076ED4FFF71BFC801B0D
:101230000228F6D9032069E146494B68484A134021
:101240002269120213434B60ACE7424A1368012142
:101250008B431360FFF706FC06003E4B1B685B07E1
:10126000A0D5FFF7FFFB801B0228F6D903204DE134
:10127000A369002B22D0374A116880235B000B43FF
:101280001360FFF7EFFB0600324B1B689B0506D48B
:10129000FFF7E8FB801B0228F6D9032036E12D4A30
:1012A000536833490B40216A0B43536053681B0258
:1012B0001B0AE16909060B435360A4E7254A13683A
:1012C0002C490B401360FFF7CDFB0600214B1B6838
:1012D0009B0598D5FFF7C6FB801B0228F6D9032093
:1012E00014E11C4A136D01218B431365FFF7BAFB10
:1012F0000600184B1B6D9B0706D5FFF7B3FB801B41
:101300000228F6D9032001E123685B0700D48EE0B0
:10131000104B9B6BDB001BD40E4A916B80235B054B
:101320000B4393630126144B1B68DB0528D5A36888
:1013300080225200934237D0002B4DD1054B1A6DBD
:101340000C490A401A651A6D0C490A401A6531E0C9
:101350000026E8E700100240FFFFFEFFFFFFFBFF53
:10136000FFE0FFFFC0530008040000200C00002035
:10137000FF1FFFFFFFFEFFFF00700040FFFBFFFFAE
:101380006B4A116880235B000B431360FFF76AFB15
:101390000700674B1B68DB05C9D4FFF763FBC01B65
:1013A0006428F6D90320B1E0624A116D80235B0006
:1013B0000B431365A368002B28D0FFF753FB0700EE
:1013C0005C4B1B6D9B0530D4FFF74CFBC01B5A4B8D
:1013D0009842F5D9032099E0A022D200934209D087
:1013E000544B1A6D55490A401A651A6D54490A4002
:1013F0001A65DFE74F4B196D013AFF3A0A431A6548
:10140000196D802252000A431A65D3E7FFF72AFBC1
:101410000700484B1B6D9B0507D5FFF723FBC01B3F
:10142000454B9842F5D9032070E0012E1AD0636A2B
:10143000002B00D172E00C2D4FD0022B18D03D4A6A
:10144000136840490B401360FFF70CFB0400394B55
:101450001B689B013FD5FFF705FB001B0228F6D94F
:10146000032053E0334A936B37490B409363DEE725
:10147000304A136833490B401360FFF7F3FA050055
:101480002C4B1B689B0106D5FFF7ECFA401B02288A
:10149000F6D903203AE02749CB682C4A1340A26AC8
:1014A000E06A0243206B02431343CB600A68802347
:1014B0005B0413430B60FFF7D5FA04001D4B1B6858
:1014C0009B0106D4FFF7CEFA001B0228F6D90320B1
:1014D0001CE000201AE0002018E0012B20D0154B62
:1014E000DA6880235B021340A16A8B421AD1F02391
:1014F0009B031340E16A8B4216D1C0231B041A40A0
:10150000236B9A4212D1002000E0012003B0F0BD0D
:101510000120FBE70120F9E70120F7E70020F5E7CC
:101520000120F3E70120F1E70120EFE70120EDE7DB
:10153000007000400010024088130000FFFEFFFF13
:10154000FFFBFFFFFFFFFFFEFFFFFFEFFFFF02FFBD
:1015500070B505000C00002800D1D1E06A4B1A6874
:10156000012313408B4219D32B689B0706D5674A8A
:10157000D368F0218B43A9680B43D3602B68DB074A
:101580007BD56B68022B20D0032B40D0012B44D09D
:101590005E4A126892051DD4012099E05A4A1368E8
:1015A00001218B4323431360FFF75CFA0600564B7F
:1015B0001A6801231340A342D6D0FFF753FA801BC9
:1015C000534A9042F3D9032082E0504A12689203B2
:1015D00000D497E04D49CA68032082431343CB608F
:1015E000FFF740FA06006B68022B1CD0032B28D0B3
:1015F000012B34D0454BDB680C221A423DD0FFF75B
:1016000031FA801B424B9842F4D9032060E03F4AF4
:1016100012689201DED401205AE03C4A1268520757
:10162000D8D4012054E0394BDA680C231340082B3E
:1016300023D0FFF717FA801B354A9042F3D90320D5
:1016400046E0324BDA680C2313400C2B15D0FFF721
:1016500009FA801B2E4B9842F3D9032038E02B4B1C
:10166000DA680C231340042B07D0FFF7FBF9801B2B
:10167000274B9842F3D903202AE0234B1A68012311
:101680001340A34225D82B685B0706D51F4AD368B1
:1016900020490B40E9680B43D3602B681B0707D533
:1016A0001A49CB681C4A13402A69D2001343CB6005
:1016B000FFF768FC154BDA6812090F231340174A2D
:1016C000D35CD840164B1860164B1868FFF782F9A8
:1016D00070BD0D4A136801218B4323431360FFF74C
:1016E000C1F90600084B1A6801231340A342CAD06F
:1016F000FFF7B8F9801B064B9842F3D90320E7E7C0
:101700000120E5E70120E3E700200240001002404D
:1017100088130000FFF8FFFFFFC7FFFFC05300085A
:10172000040000200C000020014B18687047C046E0
:101730000400002010B5FFF7F7FF044BDA68120A27
:1017400007231340024AD35CD84010BD001002406A
:10175000D053000810B5FFF7E7FF044BDA68D20A50
:1017600007231340024AD35CD84010BD001002404A
:10177000D053000870B5040003689B064ED55C4B3F
:101780009B6BDB0000D573E0594A916B80235B05AE
:101790000B4393630125574B1B68DB056AD5544BFC
:1017A0001968C0239B031940626813408B4206D01E
:1017B000C0239B0211001940994200D16FE04C4BAD
:1017C000196DC0239B0208001840194215D01A4019
:1017D000824212D023689B060FD5454B186D464AAE
:1017E00002401E6D8021090331431965196D434E76
:1017F000314019651A65C30558D46368C022920246
:1018000019001140914260D039490B6DC0229202FB
:101810006068024013430B65012D60D023689B076D
:1018200006D5334AD36C0C218B43A1680B43D36498
:1018300023685B0706D52E4AD36C31490B40E1681B
:101840000B43D36423681B0706D5294AD36C2D4963
:101850000B4021690B43D36423681B0645D5244AFA
:10186000D36C29490B4061690B43D364002070BDE0
:10187000002590E71F4A116880235B000B4313602B
:10188000FFF7F0F806001B4B1B68DB0500D586E769
:10189000FFF7E8F8801B6428F5D90320E7E7144B2D
:1018A0001B689B0300D48AE70120E0E7FFF7DAF822
:1018B00006000F4B1B6D9B059FD4FFF7D3F8801BD1
:1018C000124B9842F5D90320D1E709490A6810481C
:1018D0000240C0208003034013430B6094E70A00DA
:1018E0008B6B0C490B40936398E70020BFE7C04621
:1018F0000010024000700040FFFFFCFFFFFFF7FFF9
:10190000FFF3FFFFFFCFFFFFFFFFF3FF8813000090
:10191000FFFFCFFFFFFFFFEF03688022D205904259
:1019200005D0124A904202D0114A904203D170224F
:1019300093434A6813438022D205904205D00B4A54
:10194000904202D00A4A904203D10A4A1340CA6820
:101950001343802293430A69134303608B68C36275
:101960000B688362012343617047C0460008014051
:1019700000140140FFFCFFFF30B5036A01229343CE
:101980000362036A446882697325AA430D682A4387
:101990000225AB438D682B43446082614A684263F1
:1019A000036230BD30B5036A102293430362036AB9
:1019B00045688269084C14400A68120222432024B8
:1019C000A3431C008B681B012343456082614A6866
:1019D0008263036230BDC046FF8CFFFF30B5036AEF
:1019E0000A4A13400362036A4568C2697324A2432A
:1019F0000C682243064C1C408B681B022343456045
:101A0000C2614A68C263036230BDC046FFFEFFFF89
:101A1000FFFDFFFF30B5036A0A4A13400362036A01
:101A20004568C269084C14400A6812022243074CF8
:101A30001C408B681B0323434560C2614A680264F3
:101A4000036230BDFFEFFFFFFF8CFFFFFFDFFFFFF3
:101A500030B5036A046A0125AC4304628469EF353A
:101A6000AC43120122430A24A3430B438261036265
:101A700030BD000030B5036A1024A34303628469BB
:101A8000036A054D2C4012032243A024A3430901FD
:101A900019438261016230BDFF0FFFFF836870222E
:101AA00093430B4307210B438360704730B5846831
:101AB000034D2C401B0213430B432343836030BD73
:101AC000FF00FFFF10B51F23194001248C40036A5B
:101AD000A3430362036A8A401343036210BD70B5D7
:101AE000041E1ED03923C35C002B14D039250223D9
:101AF0006355210001C9FFF70FFF01233E22A354C4
:101B0000043AA3540132A3540132A3540132A35422
:101B10006355002070BD38330022C254FEF76AFEC0
:101B2000E4E70120F6E7704770B5041E1ED03923A4
:101B3000C35C002B14D0392502236355210001C951
:101B4000FFF7EAFE01233E22A354043AA3540132D4
:101B5000A3540132A3540132A3546355002070BD35
:101B600038330022C254FFF7DEFFE4E70120F6E736
:101B700010B50400002921D13A23C35C013B5A1E51
:101B80009341DBB2002B4DD1002930D13A330222F0
:101B9000E25401222068FFF795FF23688022D205D6
:101BA000934234D0214A934231D0214A93422ED0DD
:101BB0001A6801210A431A60002034E0042908D081
:101BC00008290DD03D23C35C013B5A1E9341DBB273
:101BD000D8E73B23C35C013B5A1E9341DBB2D1E7FC
:101BE0003C23C35C013B5A1E9341DBB2CAE7042984
:101BF00005D0082907D03D230222E254C9E73B2340
:101C00000222E254C5E73C230222E254C1E799686C
:101C100007220A40062A07D01A6801210A431A60DF
:101C2000002000E0012010BD0020FCE7000801407A
:101C30000014014070B504000D003823C35C012B73
:101C400000D16AE038230121C154082A50D01CD8A1
:101C5000002A38D0042A16D129000068FFF7A2FE16
:101C60002268916980231B010B4393612268936969
:101C70002B490B40936121688B69EA681202134378
:101C80008B6100201BE0080019E00C2A16D1290006
:101C90000068FFF7BFFE2268D16980231B010B4358
:101CA000D3612268D3691E490B40D3612168CB6997
:101CB000EA6812021343CB61002000E001203823C0
:101CC0000022E25470BD29000068FFF755FE22682B
:101CD000936908210B4393612268936904398B430C
:101CE000936122689369E9680B4393610020E6E7FA
:101CF00029000068FFF772FE2268D36908210B43B0
:101D0000D3612268D36904398B43D3612268D369D4
:101D1000E9680B43D3610020D1E70220D2E7C04637
:101D2000FFFBFFFF10B504003823C35C012B00D17B
:101D300078E038230122C25401330132C2540268D0
:101D400093683948034093600B68602B50D02AD8C1
:101D5000402B58D00CD9502B23D1CA684968206831
:101D6000FFF776FE50212068FFF798FE002005E07F
:101D7000202B0ED009D9302B0BD001203923012282
:101D8000E254013B0022E25410BD002B01D0102B85
:101D900005D119002068FFF781FE0020EEE7012041
:101DA000ECE70120EAE780225201934236D08022FC
:101DB000920193420DD1CB684A6889682068FFF789
:101DC00075FE226891688023DB010B43936000203D
:101DD000D4E7702B24D1CB684A6889682068FFF764
:101DE00065FE2268936877210B4393600020C5E766
:101DF000CA6849682068FFF73DFE60212068FFF748
:101E00004DFE0020BAE7CA6849682068FFF720FE47
:101E100040212068FFF742FE0020AFE70020ADE739
:101E20000120ABE70220AFE78800FFFF30B5382381
:101E3000C35C012B25D038230122C2540133013267
:101E4000C25403685A689C687025AA430D682A43E7
:101E50005A6003688022D205934205D00A4A934211
:101E600002D00A4A934204D1802294434A68144320
:101E70009C6039230122C254013B0022C25400203D
:101E800030BD0220FCE7C0460008014000140140BC
:101E900010B5EFF31081012383F3108802681368F3
:101EA000C024A343136081F310882023836710BDEF
:101EB00010B5EFF3108C012282F3108801680B68D3
:101EC000124C23400B608CF31088EFF3108C82F3DC
:101ED000108801688B6893438B608CF31088036EC5
:101EE000012B05D02023C36700230366436610BD82
:101EF000EFF3108183F31088026813683234FF34E3
:101F0000A343136081F31088ECE7C046DFFEFFFFB8
:101F100010B504001300826F202A54D1002954D038
:101F2000002B54D0802252018068904230D074221D
:101F3000A25C012A4DD074220120A054E164243A0D
:101F4000A3520232A3522E320021A1505F3AA2675F
:101F5000E26E002A23D02049D162E26E1F4911634C
:101F6000E26E1F495163E26E0021916322682832BC
:101F7000E16CE06EFEF7FDFD002810D080231022FA
:101F8000E2500C3B0022E254543BA36701201BE0CB
:101F90002269002ACBD1CA07C9D5012014E02368E1
:101FA00040221A6274230022E254EFF31081733B43
:101FB00083F310882268936880200343936081F341
:101FC0001088002000E0022010BD0120FCE7012065
:101FD000FAE70220F8E7C046E71F00085B20000888
:101FE00067200008704710B50300806A1B681B68F3
:101FF0009B061AD452230022C252EFF3108C0132F6
:1020000082F3108801688B688024A3438B608CF373
:102010001088EFF3108182F3108802681368402063
:102020000343136081F3108810BDFFF7DBFFFBE76C
:1020300010B5EFF31081012383F310880268136851
:102040004024A343136081F3108820238367002377
:102050008366FFF7C7FF10BD704710B5806AFFF7B2
:10206000FBFF10BD704770B5846AA26FE56F2368EF
:102070009B681B0601D5212A0ED023689B685B064E
:1020800001D5222D0FD08022A35810210B43A3503D
:102090002000FFF7E7FF70BD52230022E25220002C
:1020A000FFF7F6FEE9E75A230022E2522000FFF78D
:1020B000FFFEE8E710B5806A00235A228352083AEF
:1020C0008352FFF7CFFF10BD7047000070B50400CA
:1020D0000268D36910689568AB491E000E400B4238
:1020E00003D1990601D581061DD4002E07D0012108
:1020F0000E002E4029421CD1A449084219D1216E5C
:10210000012900D198E0D90202D5690200D528E161
:102110001A0602D5020600D52AE15B0602D543065F
:1021200000D52CE170BD636E002BFBD020009847DA
:10213000F8E7D90707D5C10505D501251562802126
:1021400062582A4362509A0709D5002E07D02268A8
:10215000022111627E31625804252A4362505A07D7
:1021600009D5002E07D02268042111627C31625803
:1021700002252A4362501A070AD5820601D4002E8E
:1021800006D0226808251562802162582A436250D1
:102190001A050AD5420108D5226880210901116279
:1021A0008021625820252A4362508022A258002AAA
:1021B000B8D09B0606D5830604D5636E002B01D0EC
:1021C000200098478023E25823689B685B0602D46E
:1021D0002823134229D02000FFF76AFE23689B685A
:1021E0005B061ED5EFF31081012383F3108822686C
:1021F000936840208343936081F31088236F002B02
:102200000BD0634A9A63206FFEF712FD002800D1BD
:1022100088E7206F836B984784E72000FFF722FF51
:1022200080E72000FFF71EFF7CE72000FFF71AFF82
:1022300080230022E25075E7D90600D463E7C10687
:1022400000D460E71023136223689B685B0650D5B7
:10225000226F13685B689BB2002B00D162E75821A4
:10226000615A994200D85DE75A21635213681B688E
:102270009B0609D55823E15A0233E35AC91A89B299
:102280002000FFF721FF4DE7EFF31080012383F3D8
:10229000108821680A683F4D2A400A6080F3108840
:1022A000EFF3108083F3108821688A689A438A606C
:1022B00080F31088EFF3108083F3108821688A6818
:1022C0004235FF35AA438A6080F310882022E267F6
:1022D00000222266EFF3108183F3108822681368CE
:1022E00010208343136081F31088206FFEF77CFC7D
:1022F000C0E75823E15A0233E25A891A89B2E35AF5
:102300009BB2002B00D10DE7002900D10AE7EFF3C3
:102310001085012383F31088206802681E4E324026
:10232000026085F31088EFF3108583F3108820682E
:1023300082689A43826085F310882022E267002237
:1023400022666266EFF3108083F3108822681368B8
:102350001025AB43136080F310882000FFF7B4FE14
:10236000E0E680235B031362200000F0C5FBD9E6A2
:10237000A36E002B00D1D5E620009847D2E62000BE
:10238000FFF756FECEE6C0460F080000200100040D
:10239000B5200008FFFEFFFFDFFEFFFFD0B5040001
:1023A000016883680269134342691343C269134396
:1023B0000A688748024013430B60226853688549C6
:1023C0000B40E1680B435360A1692268824B9A423B
:1023D00001D0236A19439368804803400B439360FC
:1023E00022687F4B9A4212D07B4B9A4220D0102316
:1023F00079498A4242D0E0698022120290427AD022
:10240000082B00D9DEE09B00764AD3589F46764BD6
:10241000D96C0C230B40082B22D005D8002B21D0DF
:10242000042BE5D01023E3E70C2B1DD1043BDFE7A1
:102430006D4BDB6CC02109010B40802109018B42EF
:1024400014D007D8002B13D08021C9008B4211D1A2
:102450000423CDE7C02109018B420DD10823C7E732
:102460000223C5E70023C3E71023C1E70223BFE728
:102470000023BDE71023BBE71023B9E7042B35D0B9
:102480000BD8002B2CD0022B05D1574B1B68DB0639
:102490002FD4564805E0012073E0082B1ED1802080
:1024A0000002626853009B18834200D97EE0130348
:1024B000834200D27CE0070E0602500800218019FA
:1024C00079410023FDF792FE494BC218494B9A42CD
:1024D00000D96FE02368D860002052E0012050E06E
:1024E000FFF728F90028DCD100204AE0FEF74AFD7A
:1024F000F8E74148D5E7082B5ED89B003F4AD35800
:102500009F46FFF717F9002858D0400063685B0822
:10251000C0186168FDF7DEFD83B20004000C010005
:102520001039374A91424BD80F2293431A00400882
:102530000723184010432368D860002021E0FFF7EC
:1025400009F9E0E7284B1B68DB0604D42748DCE7E1
:10255000FEF718FDD7E72848D7E7FFF7EBF8002884
:1025600032D063685B0818186168FDF7B3FD00049A
:10257000000C0200103A224B9A4227D82368D860F8
:10258000002000236366A366D0BDFFF7E3F8E6E70B
:10259000154B1B68DB0607D41448E2E7FEF7F2FC94
:1025A000DDE780200002DCE71348DAE70120E8E7F6
:1025B0000120E6E70120E4E70120E2E70020E0E770
:1025C0000120DEE70120DCE70020DAE70120D8E780
:1025D000F369FFEFFFCFFFFF00480040FFF4FFFF6C
:1025E00000440040E4530008001002400024F400BE
:1025F00000FDFFFFFFFC0F0000093D00085400082C
:10260000EFFF0000436ADB0706D5026853682C49D8
:102610000B40816A0B435360436A9B0706D50268EF
:10262000536828490B40C16A0B435360436A5B07F8
:1026300006D50268536824490B40016B0B43536075
:10264000436A1B0706D50268536820490B40416B5B
:102650000B435360436ADB0606D5026893681C4946
:102660000B40816B0B439360436A9B0606D502685F
:10267000936818490B40C16B0B439360436A5B0638
:102680000BD50268536814490B40016C0B4353602F
:1026900080235B03026C9A420AD0436A1B0606D56C
:1026A000026853680D490B40816C0B4353607047BF
:1026B000026853680A490B40416C0B435360ECE7D6
:1026C000FFFFFDFFFFFFFEFFFFFFFBFFFF7FFFFFA1
:1026D000FFEFFFFFFFDFFFFFFFFFEFFFFFFFF7FF52
:1026E000FFFF9FFFF8B5CE46474680B506000D00B8
:1026F00017009946089B98463368DC692C40641B98
:1027000063425C41BC4253D143460133F4D0FEF7EF
:10271000A9F94B46C01A40452CD84346002B29D076
:1027200033681A685207E7D5DA691205E4D58022C2
:1027300012011A62EFF31080012282F310883168CF
:102740000B681E4C23400B6080F31088EFF3108061
:1027500082F3108831688B6893438B6080F3108814
:102760002023B367F3677F32B35054330022F2540F
:1027700003201EE0EFF31080012282F310883168FD
:102780000B680E4C23400B6080F31088EFF3108031
:1027900082F3108831688B6893438B6080F31088D4
:1027A0002023B367F36754330022F254032000E080
:1027B0000020C0BCB946B046F8BDC0465FFEFFFF72
:1027C000F0B5C64600B582B004000D0090461E006C
:1027D000836F202B66D1002969D0002A69D080231D
:1027E0005B0182689A421ED07423E35C012B62D0A5
:1027F00074230122E2540C330022E2505F3BA367B2
:10280000FEF730F9070050234246E2520233E2520B
:1028100080235B01A2689A420CD00023984674235F
:102820000022E2541DE00369002BDDD1CB07DBD58C
:10283000012038E02369002B02D000239846EEE700
:10284000A8460025EBE743461B882268DB05DB0D25
:10285000936202239C46E0445223E25A013A92B228
:10286000E2525223E35A9BB2002B0FD000963B005A
:10287000002280212000FFF735FF00281DD1002D08
:10288000E1D02A7823689A620135E5E700963B009B
:10289000002240212000FFF725FF00280FD1202330
:1028A000A36700E0022002B080BCB846F0BD012062
:1028B000F9E70120F7E70220F5E70320F3E703201B
:1028C000F1E70000F0B5C64600B584B004000E0084
:1028D00015001F00C36F202B00D090E0002900D10D
:1028E00092E0002A00D191E080235B0182689A4245
:1028F00022D07423E35C012B00D189E074230122F0
:10290000E25400237F32A3505E3AE2672366FEF76B
:10291000A9F880465823E5520233E552A368802285
:10292000520193420FD0002B1CD12269002A15D1ED
:102930005C32FF21A1521CE00369002BD9D1CB07E7
:10294000D7D501205CE02269002A03D15C323249EC
:10295000A1520EE05C22FF21A1520AE05C227F21FD
:10296000A15206E08022520593420ED05C22002143
:10297000A1525C22A25A03928022520193420FD0AC
:10298000002574230022E2541DE02269002A03D1AD
:102990005C327F21A152ECE75C223F21A152E8E7A3
:1029A0002369002B01D00025EBE735000026E8E77E
:1029B00023685B6A039A13402B8002355A23E25A3C
:1029C000013A92B2E2525A23E35A9BB2002B12D040
:1029D00000974346002220212000FFF783FE0028B5
:1029E00018D1002EE4D023685B6A6A46127B13403C
:1029F00033700136E2E72033E367002000E0022075
:102A000004B080BCB846F0BD0120F9E70120F7E72B
:102A10000220F5E70320F3E7FF01000030B583B0A3
:102A2000040080230022C250FEF71CF80500226833
:102A3000126813070DD423681B685B0716D4202384
:102A4000A367E367002323667422A354002003B026
:102A500030BD80210C4B009303000022890320002D
:102A6000FFF740FE0028E6D00320F0E78021064B68
:102A700000932B000022C9032000FFF733FE00283B
:102A8000DDD00320E3E7C046FFFFFF0110B5041EC1
:102A90002ED0836F002B21D02423A36722681368D4
:102AA00001218B4313602000FFF778FC012814D02C
:102AB000636A002B18D1226853680E490B4053609B
:102AC000226893682A218B4393602268136829390E
:102AD0000B4313602000FFF7A1FF10BD74330022E9
:102AE000C254FDF741FFD7E72000FFF78BFDE2E777
:102AF0000120F2E7FFB7FFFF704700000D48854651
:102B00000D480E490E4A002302E0D458C450043345
:102B1000C4188C42F9D30B4A0B4C002301E013601C
:102B20000432A242FBD3FDF763FE00F017F8FDF775
:102B3000B3FDFEE70020002000000020740000200C
:102B4000B055000874000020D8010020FEE7000006
:102B5000014B18687047C0461000002070B5002671
:102B60000C4D0D4C641BA410A64209D1002602F0A6
:102B70006DFB0A4D0A4C641BA410A64205D170BD22
:102B8000B300EB5898470136EEE7B300EB5898478F
:102B90000136F2E7A8550008A8550008A855000816
:102BA000AC55000803008218934200D17047197099
:102BB0000133F9E70EB400B50B499CB01DAB029090
:102BC0000690079104910948094904CB05910068D2
:102BD00002A9019300F070F80023029A13701CB050
:102BE00008BC03B01847C046FFFFFF7F100000205D
:102BF0000802FFFFF0B58E6885B007000C00039255
:102C000001939E423CD890238A89DB001A4234D03B
:102C10000969236860695B1A029303234343DD0F4C
:102C2000ED18019B029801331B186D10AB4200D9BF
:102C30001D00530532D52900380000F053FB061E55
:102C400009D10C233B6040230120A2894042134359
:102C5000A38105B0F0BD029A216900F0BAFAA389F8
:102C6000144A1A4080231343A381029B2661F6185D
:102C700026606561019EED1AA560019B9E4200D908
:102C8000019E32000399206800F0ACFAA36800208E
:102C90009B1BA36023689E192660DAE72A00380090
:102CA00000F096FB061EE0D13800216900F0AEFA74
:102CB000C7E7C0467FFBFFFFF0B5A1B003901D0042
:102CC0008B890F0016001B0611D50B69002B0ED146
:102CD000402100F007FB38603861002805D10C2343
:102CE000039A0138136021B0F0BD40237B610023BB
:102CF00008AC6361203363761033A3760795350003
:102D00002B78002B01D0252B47D1AB1B0593B54267
:102D10000CD0320039000398FFF76CFF431C00D140
:102D2000AEE06269059B9446634463612B78002B97
:102D300000D1A5E0012200235242626004A954326E
:102D400052186E1C2360E360A3601370A365052214
:102D50003178544800F032FA751C00281FD12268DF
:102D6000D30604D5532304A95B1820211970130737
:102D700004D5532304A95B182B21197033782A2B0F
:102D800016D0350000210A20E3682A786E1C303AFC
:102D9000092A4ED9002911D117E00135B0E7414B7E
:102DA0002268C01A0123834013432E002360CEE71C
:102DB000079B191D1B680791002B01DB0B9304E097
:102DC0005B42E3600223134323602B782E2B0AD14E
:102DD0006B782A2B35D1079B02351A1D1B68079289
:102DE000002B2BDB0993304E03223000297800F0B2
:102DF000E5F9002806D04023801B83402268013576
:102E0000134323602978062228486E1C217600F09F
:102E1000D5F900283CD0264B002B25D10722079B53
:102E200007339343083307936369049A9B186361DC
:102E300065E74343350001219B18A6E701235B4268
:102E4000D0E700230A201A000135636029786E1C40
:102E50003039092903D9002BC5D00992C3E7424371
:102E6000350001235218F1E707AB00933A00210027
:102E7000104B039800E000BF0490049B0133D3D1B2
:102E8000BB890D985B0600D42DE7012040422AE75C
:102E900007AB00933A002100064B039800F07CF842
:102EA000EAE7C0462C5400083254000836540008A3
:102EB00000000000F52B0008F7B5150001938A68A3
:102EC0000B690C000090934200DA130022002B6083
:102ED00043321278002A01D001332B6023689B060D
:102EE00002D52B6802332B602268062317001F408F
:102EF0001A4227D0230043331B785A1E934122687D
:102F0000920630D4220001990098089E4332B047BF
:102F1000431C25D0062320682A68E1680025034069
:102F2000042B03D18D1AEB43DB171D40A3682269E4
:102F3000934201DD9B1AED180027BD4220D10020ED
:102F400010E00137E3682A689B1ABB42D2DD2200F9
:102F5000012301990098089E1932B047431CF0D113
:102F600001204042FEBD3020E118433108702100AD
:102F70005A1C45310978A218433202331170C1E757
:102F80002200012301990098089E1A32B047431C81
:102F9000E6D00137D1E70000F0B58BB006920A0009
:102FA00043320793059004920A7E0C00109B782A06
:102FB00007D8622A09D8002A00D1C1E0582A00D1D6
:102FC0008CE026004236327022E01000633815286B
:102FD000F7D8FDF775F816001F00F6FFF6FFF6FFAD
:102FE000F6FF1F00F6FFF6FFF6FFF6FFA80036001B
:102FF0009A00F6FFF6FFB900F6FF3600F6FFF6FF7F
:103000009E0026001A684236111D1960136833703D
:103010000123A7E0086819680A1D05060BD50D688D
:103020001A60002D03DA2D23049A6D421370614B50
:103030000A2703931BE00D681A604106F1D52DB2F3
:10304000EFE70D681968081D18602E0601D50D6898
:1030500003E06D06FBD50D68ADB2564B0827039310
:103060006F2A00D002372300002243331A706368AE
:10307000A360002B03DB0422216891432160002D13
:1030800002D1049E002B0CD0049E28003900FDF7CD
:10309000A7F8039B013E5B5C33702B0005009F4249
:1030A000F3D9082F09D12368DB0706D563682269A5
:1030B000934202DC3023013E3370049B9B1B23614F
:1030C000079B210000930598069B09AAFFF7F4FED1
:1030D000431C4CD1012040420BB0F0BD45310A7079
:1030E000344A03921A68216820CA1A60080616D565
:1030F000CB0702D52023194321601027002DB2D120
:10310000202322689A432260ADE7202209680A43FF
:1031100022602200782145321170274AE1E74806F3
:10312000E6D5ADB2E4E71A680D68101D496918606C
:1031300013682E0601D5196002E06D06FBD51980D3
:103140000023049E2361BBE71A68111D19601668ED
:1031500000213000626800F031F8002801D0801BA7
:103160006060636823610023049A1370A8E72369F1
:10317000320006990598079DA847431CAAD02368EA
:103180009B0715D4099BE0689842A5DA1800A3E7CD
:103190002200012306990598079E1932B047431C67
:1031A00098D00135E368099A9B1AAB42F0DCE9E755
:1031B0000025F7E73D5400084E540008C9B28218B4
:1031C000904201D10020704703788B42FBD0013040
:1031D000F6E7002310B59A4200D110BDCC5CC45470
:1031E0000133F8E710B5884202D98B18984203D30F
:1031F000002307E08B5C8354013AFBD210BDCC5C0A
:10320000C45401339A42FAD1F8E7000070B50500C2
:10321000002910D00C1F2368002B00DAE4182800C6
:1032200000F018F91D4A1368002B05D16360146083
:10323000280000F017F970BDA34208D92168601872
:103240008342F3D118685B6841182160EEE71A00E9
:103250005B68002B01D0A342F9D911685018A04235
:103260000BD120680918501811608342E0D118680A
:103270005B68411811605360DAE7A04202D90C2361
:103280002B60D5E721686018834203D118685B681A
:103290004118216063605460CAE7C046C80100203D
:1032A00070B50F4E0D0031680400002902D100F006
:1032B000BFF830602900200000F0BAF8431C0AD0A3
:1032C0000323C51C9D43A84207D0291A200000F003
:1032D000AFF8431C01D101256D42280070BDC046E6
:1032E000CC010020F7B50322CB1C93430833060022
:1032F0001F000C2B32D20C27B94231D8300000F01D
:10330000A9F8324D2B681C00002C2ED1390030005A
:10331000FFF7C6FF0400431C1ED12C682500002DBA
:103320004AD123682900E3183000019300F080F8A7
:10333000019B834243D123680337FF1A03239F4332
:1033400008370C2F00D20C2739003000FFF7A8FFF8
:10335000431C34D02368DF19276013E0002BCBDA3D
:103360000C23002533602800FEBD2268D11B20D429
:103370000B2917D9E2192760A34211D12A6063688B
:10338000116053603000250000F06CF807220B3507
:10339000231D9543EA1A9D42E5D05B1BA350E2E74B
:1033A0005A60ECE76268A34201D12A60EAE75A60FA
:1033B000E8E723006468A7E72C006D68AFE70C23FB
:1033C0003000336000F04EF8CDE7C046C801002061
:1033D000F7B507000E001400002905D11100FFF712
:1033E00081FF05002800FEBD002A03D1FFF70EFF74
:1033F0002500F7E700F03EF80190844203D835003D
:103400004308A342EED321003800FFF76BFF051EEF
:10341000E8D0019B22009C4200D91A00310028000C
:10342000FFF7D7FE31003800FFF7F0FEDAE70000C3
:10343000002370B5064D040008002B60FDF7B4F9B9
:10344000431C03D12B68002B00D0236070BDC04605
:10345000D001002010B5024800F014F810BDC0469D
:10346000D401002010B5024800F00DF810BDC04690
:10347000D40100200B1F1B68181F002B01DA0B580A
:10348000C018704770477047F0B5CE46474680B5C4
:10349000070099463B0C9C4613041B0C1D000E00B4
:1034A00061460004140C000C45434B4360436143E8
:1034B000C0182C0C20188C46834203D980235B0251
:1034C0009846C444494679437243030C63442D042F
:1034D0002D0CC918000440198918C0BCB946B04663
:1034E000F0BDC046F0B557464E464546DE46E0B50F
:1034F00004000D009246994683B08B4230D82DD0FF
:1035000049465046FCF7B0FE290006002000FCF7B3
:10351000ABFE331A9846203B9B4633D45A4653465B
:10352000934042461F00534693401E00AF423AD894
:10353000AF4200D178E05B46A41BBD41002B00DA0E
:1035400075E0002200230092019301235A46934024
:103550000193012342469340009328E08242CFD951
:1035600000220023009201930C9B002B01D01C60D1
:103570005D600098019903B0F0BCBB46B246A94615
:10358000A046F0BD424620239B1A5246DA404146EF
:1035900013004A468A40170042461F435346934051
:1035A0001E00AF42C4D9002200230092019343467B
:1035B000002BD9D0FB0772081A4346467B080EE061
:1035C000AB4201D1A2420CD8A41A9D41012024197A
:1035D0006D410021013E24184D41002E06D0AB4222
:1035E000EED9013E24196D41002EF8D100980199C1
:1035F0005B4600196941002B24DB2B005A464446E8
:10360000D3402A00E2401C005B461500002B2ADB59
:1036100026009E40330026004746BE403200801AF6
:103620009941009001919FE7A342BCD883E74246AD
:10363000202300219B1A0022009101920122DA40EE
:10364000019286E7424620239B1A2A0046469A406A
:103650002300F340444613432A00E2401C005B462B
:103660001500002BD4DA42462F0020232600974075
:103670009B1ADE403B003343CDE7C046F0B5C6465B
:1036800043025B0A4E0245004F00DA00C40F9C461D
:10369000700A904600B52D0E3F0EC90FB6098C4238
:1036A0004BD0EA1B002A36DD002F61D0FF2D00D160
:1036B000ADE08023DB041E431B2A00DCD3E00120A5
:1036C0004346181A430100D48CE080018709380072
:1036D000FCF7ACFD05388740854200DCB6E02D1ACA
:1036E000B3483840430704D00F230340042B00D0D5
:1036F0000430430100D478E06A1CFE2D65D08001BF
:10370000430A9C46D2B26346D0051843E4072043DF
:1037100080BCB846F0BD002A35D07A1B002D00D001
:10372000AFE04346002B00D1A7E0531E012A00D191
:103730002FE1FF2A69D01A00AAE0E91B002970DDF9
:10374000002F37D0FF2D62D08023DB041E431B29BE
:1037500000DCB0E001204044430143D50135FF2D9A
:1037600033D00123934A0340400810401843B9E77F
:10377000002E00D183E0511E012A00D1D8E0FF2A9B
:1037800045D00A0098E7FE276A1C174200D086E061
:10379000002D00D0B7E04346002B00D1F3E000221B
:1037A000002EB0D0981B430100D4FAE043460C0031
:1037B000F01A97E7002E00D1C8E04A1E012900D177
:1037C000AEE0FF2923D01100C1E70023FF229C4671
:1037D00099E7FE216A1C114277D0FF2AF5D0150027
:1037E00046447008430700D07EE7C308FF2D0ED083
:1037F0005B025B0A9C46EAB285E7002E07D0802276
:10380000D203134203D0104201D10C000300002B5D
:10381000DBD08020C00318434002430A9C46FF22AD
:1038200071E70029D5D07A1B002D60D14346002BCB
:1038300024D0531E012A73D0FF2AE7D01A001B2A76
:1038400000DC85E001203D00801985E720233A0057
:10385000451B38000135EA405D1BA840431E9841D6
:10386000002510433EE7202330009B1A310098408A
:10387000D140431E9841084322E70C000300150085
:10388000B4E7FF2FC1D080234046DB0418438046B5
:103890001B2A51DD01200C003D00301A12E743467F
:1038A0009F1B7B012BD4002F00D010E700230024A6
:1038B00000229C4627E7202332003000CA40591AD4
:1038C0008840431E9841104345E7002D4AD14346A6
:1038D000002B63D00022002E00D114E730004044BA
:1038E000430100D47EE7324B013518407AE7FF2FC1
:1038F0008CD080234146DB04194388469FE743462A
:103900000C00F71AE3E64246002A00D075E7002EC5
:1039100000D07AE78023DB0300249C46FF22F2E6F6
:10392000300040440125430100D45BE7022518E73D
:1039300043460125981BC5E6202344464046D44013
:103940009A1A9040431E98412043A4E70D004DE78A
:10395000202341464046D1409A1A9040431E984148
:10396000084370E74246002A00D14FE7002E00D1FD
:103970004DE78022D203134200D148E7104200D025
:1039800045E7030043E7002E90D00C008446002258
:10399000B9E643460C00F01A013593E6844600224E
:1039A000B1E6002800D01DE7002300249C46AAE6CB
:1039B000FFFFFFFBFFFFFF7DF0B54F464646D646B3
:1039C0004502C0B547000C1C6D0A3F0EC60F002F04
:1039D00000D170E0FF2F00D175E0EB008025ED04F1
:1039E0001D43002399469A467F3F6002430A98464A
:1039F00063001B0EE40F002B4ED0FF2B46D0424637
:103A0000D0008022D2040243904600227F3B310046
:103A1000FF1A4B466140C9B213430F2B00D9B5E0E2
:103A20006E489B00C3589F46002398462600454693
:103A300092465346022B00D189E0032B00D19EE031
:103A4000012B18D03B007F33002B69DD6A0704D0BF
:103A50000F222A40042A00D004352A0103D5604BE6
:103A60001D403B008033FE2B00DD70E0AD016D0A90
:103A7000D8B202E00E0000200025C0052843F6075A
:103A80003043E0BCBA46B146A846F0BD4346002BE1
:103A90003FD10222FF3F03E04346002B2DD10122FC
:103AA00031004B466140C9B213430F2B34D84D4807
:103AB0009B00C3589F46002D13D104239946033B16
:103AC00000279A4691E7002D05D108239946063B29
:103AD000FF279A4689E70C239946093BFF279A4618
:103AE00083E72800FCF7A2FB7627431F9D400023B5
:103AF0007F4299469A463F1A77E74046FCF796FB85
:103B00004246431F9A4076235B4290461B1A00228E
:103B10007DE7FF2303227AE70E00FF200025ACE7B4
:103B20000120C01A1B28A6DC9E372A00BD40C240D7
:103B30006B1E9D4115436B0704D00F232B40042BB4
:103B400000D004356B0144D50120002595E7FF2006
:103B5000002592E780250026FF20ED038DE7002356
:103B600098468020C003054209D04346034206D14F
:103B7000454605436D022600FF206D0A7DE7802043
:103B8000C00305436D02FF206D0A76E742466B01D4
:103B90005001834219D21B220025013F01261C003F
:103BA0006D005B00002C01DB984201D81B1A3543E5
:103BB000013A002AF3D15A1E93411D433B007F3343
:103BC0000E00002B00DD41E7AAE71A2201251B1A8F
:103BD000E4E7AD0100206D0A4FE7C04660540008DD
:103BE000FFFFFFF7A0540008F0B54F464646D64603
:103BF00044024500C0B5640A0F1C2D0EC60F002DEF
:103C000000D18DE0FF2D00D192E000238020994665
:103C10009A46E400C00404437F3D7802430A984674
:103C20007B001B0EFF0F002B00D170E0FF2B00D19B
:103C300086E04246D00080227F3BED180023D2046C
:103C4000024390469C4631004B467940681C0F2B3E
:103C50001CD8764A9B00D3589F4639004446E2461A
:103C60005346022B0FD0032B00D1D7E0012B37D1C5
:103C700000200024C0052043C9070843E0BCBA4621
:103C8000B146A846F0BDFF200024F3E7260C24042B
:103C9000220C44462404240C434627001B0C5743A3
:103CA00074435A435E4312193B0C9B189C4203D940
:103CB00080225202944666443F041A043F0CD219F3
:103CC0009401671EBC411B0C920E9B1914439B016F
:103CD0001C431B0100D49BE0012362081C401443D9
:103CE00002007F32002A64DD630704D00F232340E3
:103CF000042B00D00434230103D502004C4B803246
:103D00001C40FE2ABFDCA401640AD0B2B2E74346DD
:103D1000002B3DD14A4601331A4391469C4692E717
:103D2000002C29D104239946033B00259A4674E7C9
:103D3000002C1BD108239946063BFF259A466CE7C9
:103D40004346FF35002B0BD102234A461A439146C6
:103D50009C4678E753463100022B00D083E792E778
:103D600003234A461A4391469C466CE70C23994626
:103D7000093BFF259A4650E72000FCF757FA7625C5
:103D8000431F9C4000236D4299469A462D1A44E7F2
:103D90004046FCF74BFA4246431F9A4000232D1A37
:103DA00090469C46763D4EE780240021FF20E403A8
:103DB00060E701239B1A1B2B00DD59E722009E3090
:103DC000DA4084401300621E94411C43630704D010
:103DD0000F232340042B00D0043463011AD50120A3
:103DE000002447E78020C003044209D04346034231
:103DF00006D14446044364023900FF20640A39E7CF
:103E00008020C003044364023100FF20640A31E7CC
:103E1000280065E7A4010020640A2BE78020C00386
:103E200004436402FF20640A24E7C046E05400080B
:103E3000FFFFFFF770B5051E0ED0FCF7F7F99E23C4
:103E400004001B1A962B0CDC082801DD083CA54059
:103E50006D026D0AD8B201E000200025C00528439C
:103E600070BD992B09DD020029001B3291404A1ECA
:103E700091410522121AD5400D43052C12DC290070
:103E80000C4E31406A0709D00F202840042805D085
:103E900004314A0102D59F2331401B1B89014D0A81
:103EA000D8B2DBE7621F95402900024E31406A0715
:103EB000F4D0E9E7FFFFFFFBF0B54F464646D64694
:103EC0000D000400C0B51F0011002803620F400A56
:103ED00010437A00520DE3003C039146640AFA0F46
:103EE0004F0F6E0027439246B846760DED0FC9007E
:103EF000954200D199E04C46341BA446002C00DCCE
:103F00007CE04A46002A00D1B8E0C54A964200D17A
:103F10001CE180223C0012041443A0466246382A69
:103F200000DD61E11F2A00DDCCE164462022121B86
:103F3000444694400F00A14664469140E7404C46F9
:103F40004A1E91413C43424621436446E240801A66
:103F50005C1AA3429B415F42C71B3B0200D4D0E0E6
:103F60007F027F0A002F00D1FFE03800FCF75EF9E6
:103F700001000839202322005B1A8F40DA408C4070
:103F80001743B14200DAFFE0891B4B1C1F2B00DDF9
:103F9000A8E020223900D21A200094409140D84055
:103FA000621E9441DF40002601430C43630709D0A1
:103FB0000F232340042B05D0231DA342A4416442B8
:103FC0003F191C003B0200D49EE0954B01369E42F7
:103FD00000D1B7E0934AE40817407B0771057F02E0
:103FE00023433F0B4A0D12053A43ED072A431800BD
:103FF0001100E0BCBA46B146A846F0BD002C4BD03B
:104000004C46A41BA446002E00D023E104001C4310
:1040100000D1AFE16246541E012A00D115E2804D65
:10402000AC4500D1C8E1A4461BE14A46B21A944609
:10403000002A00DCACE04A46002A43D0784A964287
:1040400000D1AFE180223C0012041443A046624636
:10405000382A67DC1F2A00DC5FE14746203AD74058
:104060006246202A05D064464022121B44469440F2
:1040700021434A1E91410C003C4357E03A000A4359
:1040800000D105E12200013A012C00D182E1644C0B
:10409000A4455BD0944641E7634C771C274200D08F
:1040A000C4E004001C43002E00D069E1002C00D1C4
:1040B000BFE144460C4300D0D0E14207DB08134384
:1040C000C00829E03A000A4300D170E16246644624
:1040D000013A012C00D1E0E0514CA44500D161E14E
:1040E0009446B4E73A001F39CA401100202B03D090
:1040F0004022D31A9F403C43631E9C410027002668
:104100000C43630700D053E7B446E4087B0723431E
:10411000F808434A94451DD06246070352053F0BF9
:10412000520D60E744460C43621E9441E4189C42E1
:104130009B415F423F183B02E3D5394B01369E421B
:1041400000D0B5E03200002700234CE74207DB082F
:104150001343C0081A00024300D1E1E180273F0366
:1041600007433F032E4A3F0B3DE72000FCF75EF874
:10417000010018311F2900DCFCE6083884402700C4
:104180000024B14200DBFFE6264A761A17400DE70D
:10419000002A2FD04A46921B9446002E00D1ADE053
:1041A0001F4A914500D10FE180221204104362465C
:1041B000382A00DD0FE11F2A00DD80E1644620225D
:1041C0001E00121B6746040093409440FE405A1E96
:1041D0009341F84034431C43804464188C42BF41EF
:1041E0007F424E464744A6E742460A4311004A1E14
:1041F0009141ADE60C4C721C224200D0A1E00200BD
:104200001A43002E00D0FAE0002A00D145E13A001E
:104210000A4300D046E14207DB081343C0087BE7AE
:10422000FF070000FFFF7FFFFE07000047465C1A04
:10423000C21BA342BF417F42B94617004A46BF1A7C
:104240003A0200D58DE023003B4300D08AE60020EF
:10425000002561E7B44CA14500D1ADE080242404E1
:1042600020436446382C3DDC62461F2C00DDB7E05D
:1042700020251E002D1B0400AB40AC40D640D04092
:1042800042465D1EAB413443121A904623432CE054
:104290004207DB081343C0083BE75C189C429B4184
:1042A00040445B42C71801263B0200D429E702269E
:1042B0009E4A63081740012214401C43FB071C431D
:1042C0007F0873E64446203AD4406246202A05D04F
:1042D00067464022D21B4746974039434A1E9141C8
:1042E000214335E60343581E8341CC1AA142BF4106
:1042F00043467F4255464E46DF1B2EE602001A43D8
:1043000000D1BDE062466446013A012C00D1E5E0EF
:10431000854CA44558D0944649E764462022121B98
:10432000444694400F00A14664469140E7404C4605
:104330004A1E91413C4342460C436146CA408018A4
:10434000F4E6794CA24200D1FDE6591899429B410E
:1043500040445F42C719FC07490816000C437F0818
:10436000CFE6CC1AA142BF4143467F42181A5546B8
:10437000C71BF7E5C9087B0755460B43F808C8E695
:10438000002C00D081E043460B4315D1802000254E
:104390000003E3E65C1AA3429B41C71B5B42012674
:1043A000FF1ADAE54207DB081343C008D2E64207EA
:1043B000DB081343C008ACE643464246C9085B0726
:1043C00055460B43D008C5E6434642465B07C9083D
:1043D0000B43D008BEE603431C00631E9C41FCE671
:1043E0000200203CE24014006246202A03D040250F
:1043F000AD1AA8400343581E8341234375E7002AA2
:10440000E2D03A000A43CDD04207DB0813438022B2
:10441000C0081203104206D0FC08144203D1200049
:10442000CB087A0713435A0FDB005207DB0813430C
:1044300090E643460B4300D109E743464246C9088C
:104440005B0755460B43D00866E6CC1AA14289416A
:104450003F1A4942554601267F1A7EE542465C1ABC
:10446000871AA34292415242BF1A3A023DD5CC1A52
:10447000A1428941434649421F1A55467F1A95E594
:104480007B07C9080B43F80843E64446DB080C43A6
:1044900030D142071343C0085CE67B07C9080B43D1
:1044A000F80839E65C189C429B4140445B42C718BF
:1044B0003B0200D425E61D4B01261F4021E60400E7
:1044C000203AD4406246202A04D040226646921BFD
:1044D000904003435A1E93411C437EE65C188C4275
:1044E0008941404449424718DDE623003B4300D15F
:1044F000ADE606E6440723438024C0082403204297
:1045000008D04246D608264204D155463000CB0892
:1045100051070B435A0FDB00DB085207134319E620
:104520000023014A1F005EE5FF070000FFFF7FFF39
:10453000F0B557464E464546DE46E0B58146050095
:104540000C03480092461F0085B0240B400DCE0F8F
:10455000002800D156E1D44B984200D172E16B0F94
:10456000E4001C4380231B0423439846CF4BED00FB
:104570009B4600239946834400933C037B005046AE
:10458000240B5B0DFF0F002B00D11FE1C64A9342A5
:1045900000D162E1C549420F8C46E40059461443FC
:1045A000802263441204CB1A14439B46C2000020AD
:1045B00033007B409A464B460F2B27D8BC499B00C3
:1045C000CB589F46B246009B022B16D0032B00D13E
:1045D0008EE2012B00D0D9E00023002400255246B2
:1045E0001B052343D20713432800190005B0F0BC74
:1045F000BB46B246A946A046F0BD00240025AA4B02
:10460000EDE7BA46A04615000090DCE7444500D22D
:10461000C7E100D1C2E101235B429C462E00404627
:104620000025E3442302140E1C431B0C994623046B
:104630001F0C1202494600920197FBF7D1FD0200C0
:104640007A430B04310C804619438A4207D901236F
:104650005B429C460919E0448C4200D807E2881A64
:104660004946FBF7BDFD09048C4631046646019AB4
:10467000090C4243030031438A4204D90919013B22
:104680008C4200D8EDE1881A424612041A43904643
:104690004146009B0E041B0C1F000293009B360C2E
:1046A0001B04190C0B007343120C7E4303915143FE
:1046B0007A431F0CBC4676186644B14203D9802168
:1046C00049028C466244310C8A1831041E04360CAF
:1046D0008E19904202D312D1B54210D24346591ED0
:1046E000009B9C4665441F009D429B415B421B19F9
:1046F000C018844200D2A0E100D19BE18846AE1BE5
:10470000B542AD41801A6D42401B844200D1D5E1D3
:104710004946FBF765FD019A0B044243310C050045
:1047200019438A4200D96CE1881A4946FBF758FDC3
:10473000019A360442430904360C03000E43B24288
:1047400000D953E10398B61A02002D041D43029FBD
:104750002B041B0C5A437B439C46290C4843130CE7
:10476000844463447943984203D9802040028446BC
:104770006144180C12041B04120C41189B188E4241
:1047800000D2FFE000D1FAE001231D43494A5A4418
:10479000002A00DCAAE06B0700D03DE1ED084346AB
:1047A000DB0106D54246444B1A4090468022D20097
:1047B0005A44424B9A4200DD1FE743465B071D43C4
:1047C000434652055C02240B530D08E75246224330
:1047D00000D17BE0002C00D1FAE02000FBF726FDA1
:1047E00002000B3A1D2301009B1A52460839DA4099
:1047F0008C40144352468A40314B58449B46834474
:104800000020D5E64B462343984644D0002C00D1E7
:10481000CEE02000FBF70AFD010002000B391D234A
:104820005B1A49461000D940083884400B004D46B9
:104830002343984685402348831A9B460023994684
:1048400000939AE64B46234398461DD10823994688
:10485000063B0025834600938FE65246224309D14A
:10486000022349461943184B89469C4600240220DE
:10487000E3449DE603234A461A43134B91469C4664
:1048800052460320E34493E60C239946093BA04695
:104890008346009371E60423994600239B46013327
:1048A0000025009369E6C046FF07000001FCFFFFFA
:1048B00020550008FF030000FFFFFFFEFE07000079
:1048C000F30300000DFCFFFF01F8FFFF4946012341
:1048D00019438946002401206AE6002380249A4671
:1048E00000258A4B24037AE601256D4201239B1A99
:1048F000382B00DD70E61F2B00DCBFE01F21494292
:104900008A1A4146D1400A00202B04D04146804BF0
:104910005B4499400D436B1E9D4107232A431D00B4
:1049200000241540134200D1D4E00F210023114090
:10493000042900D1CBE0111D9142924152429B18B3
:104940000A00190200D4C2E001230024002546E633
:10495000802341461B03194208D01C4206D11C4348
:104960002403BA461500694B240B38E680244346DD
:1049700024031C432403B246644B240B2FE6002B74
:1049800000D103E7A619681EA64200D28DE08E4230
:1049900000D2A3E000D1B3E00500F5E6AA4200D9B9
:1049A00039E64346DE0758086B081E43ED0739E633
:1049B0004846FBF73BFC01000200153120321C2960
:1049C00000DC2CE74B46083883400025984632E748
:1049D000FBF72CFC03001A00153220301C2A00DCE7
:1049E00000E75446083B00229C4005E73619013B8E
:1049F000B44200D9A6E6B24200D8A3E6831E361917
:104A0000A0E60919013D8C4200D98DE68A4200D802
:104A10008AE6851E091987E60F232B40042B00D157
:104A2000BCE605235B42AB429B4104355B42ED088B
:104A30009844B4E6AF4200D960E6824204D800D080
:104A40005CE6AE4200D859E602235B429C46009BDE
:104A5000E0449C4665449D429B415B421B19C01843
:104A60004DE68A4200D80EE6831E09190BE68A42FB
:104A700000D8F4E5831E98460919F0E52549280079
:104A800059448D4042468A40691E8D414146D84076
:104A9000D94002432A430B00510700D151E70F21AF
:104AA0001140042900D046E74BE705008E4200D0B4
:104AB0006AE6009A934200D066E667E6164A5A44D0
:104AC000002A00DC10E701230025984467E65D0713
:104AD0005B021C0BD2080023154380E50098023DC1
:104AE00042008242BF417F423C1936190092DDE705
:104AF0008024434624031C432403044B240B6EE50B
:104B0000009A9A42EAD30500D3E7C046FF070000A7
:104B10003E0400001E040000FF030000F0B55746ED
:104B20004E464546DE46E0B598460C034B0006006F
:104B3000924687B0240B5B0DCF0F002B00D15CE1B8
:104B4000D94A934200D175E1420FE4001443802218
:104B500012041443D54AC5009446634400930023CD
:104B600099469B46434642461E03D20F5B00504681
:104B70009046360B5B0D00D120E1CB4A934200D129
:104B800062E1CA49420F8C4600996344F6008C46A4
:104B9000164380229C44120463461643C200002040
:104BA00000930099434601318C4649467B4001936E
:104BB0000F2926D8BE4B890059588F46434601938A
:104BC0003400150083465B46022B16D0032B00D120
:104BD00003E2012B00D0CDE0002200240025019B40
:104BE00012052243DB071A432800110007B0F0BC6E
:104BF000BB46B246A946A046F0BD00240025AA4AFD
:104C0000EDE7280C2D042D0C2B00110C1204120CB6
:104C10005343984613002F00434399464F434F4454
:104C2000BB4647460B003F0CBA464343DA44029367
:104C3000D14504D980277F02B9464B44029353469D
:104C40001B0C9B4653461F0443461B041B0C9846F3
:104C50003B0043440493330C3604360C984633002F
:104C600043439946434643432F009A46434677437E
:104C70005D43380C4D444519A94503D980235B0297
:104C80009946CA443F04280C3F0C2D04ED19270C0B
:104C90002404240C0300200050437A4391463A0038
:104CA00053440593030C9A464A4361434944514493
:104CB000AB44894503D980235B0299464A440004EA
:104CC0000B0C000C09040918200099464346704358
:104CD0005C437E435F43030C9846A41944444A4412
:104CE0000397A64204D980235B0298464744039762
:104CF0002304029E9A46059B5E449846AE42AD410F
:104D000076188E4289410004000C504440446D42A4
:104D10004719B846934649428946C344D944984204
:104D20008041A845AD4193459241894589416D42F5
:104D300040422843240C524249420A43039B001933
:104D40008018C7184B46DC0D049B75021D436A1E74
:104D500095414B46F60D7F0235435A023C431543BD
:104D6000FB0100D41CE101216A080D401543E20754
:104D7000154364084F496144002900DCB0E06B072B
:104D800009D00F222A40042A05D02A1DAA42AD418B
:104D90006D4264191500E30104D58021464AC9001B
:104DA00014406144454A914200DD26E76207ED0860
:104DB000640249051543240B4A0D10E7524632435D
:104DC00000D17FE0002E00D1DCE03000FBF72EFAAE
:104DD00002000B3A1D2301009B1A52460839DA40A3
:104DE0008E40164352468A40009B3549181A0300EC
:104DF0008C46634400200093D3E6250005434AD047
:104E0000002C00D1B0E02000FBF710FA01000200F6
:104E10000B391D2310005B1A31003500083884401F
:104E2000D94085400C432648831A009300239946B5
:104E30009B4697E60500254326D1082200930223CE
:104E4000002491469B468DE65246009B324310D18A
:104E5000154900268C4663444946009302231943B2
:104E6000894602209DE65B460197022B00D0ADE605
:104E7000C3E60D4A0320944663444A460093032345
:104E80001A43914652468CE60C22009303230500F8
:104E900091469B4666E6042399460023009301331E
:104EA00000249B465EE6C046FF07000001FCFFFFB2
:104EB00060550008FF030000FFFFFFFEFE07000033
:104EC0000DFCFFFF494601231943894600260120B6
:104ED00067E6002380240025434A019324037EE6ED
:104EE0000120401A382800DD76E61F285BDD1F22EE
:104EF00023005242511ACB401900202803D03B4ACC
:104F00006244944025436A1E95412A000A430721C2
:104F10000D000024154011425BD00F2100241140E8
:104F2000042953D0111D914292415242A4180A0003
:104F300023024BD501220024002550E680231B03C9
:104F40001C4209D01E4207D133431C0343461500BF
:104F5000240B254A019342E68022120314432403C2
:104F6000214A240B01973AE6FBF760F901000200A1
:104F7000153120321C2900DC4BE7340008380025AD
:104F8000844050E7FBF752F903001A001532203035
:104F90001C2A00DC1EE75646083B00229E4023E701
:104FA000009B9C46E6E61249220061442E008D409B
:104FB0008A40C640691E8D4132432A43C44053078C
:104FC000B6D00F2111400429ACD1B1E765076402C6
:104FD000240BD2081543002201E680221203144359
:104FE0002403014A240BFAE5FF0700003E040000F9
:104FF0001E0400000A0030B5134C530009030500DD
:10500000090B00205B0DD20FA34204DD0F48834241
:1050100002DD0F4BD01830BD8020400301430D4806
:10502000C01A1F2808DD0C48C31AD9400B0058428B
:10503000002AF0D11800EEE7084CC540A4466344AE
:1050400099400B002B43F2E7FE0300001D04000013
:10505000FFFFFF7F3304000013040000EDFBFFFFA0
:1050600010B5041E10D0FBF7E1F80F4B1B1A0A28ED
:1050700011DC0B222100121AD14015300A035B0506
:105080008440120B5B0D01E0002300221B0513433B
:105090002000190010BD22000B3882405B0512036E
:1050A0000024120B5B0DF1E71E04000070B54300F5
:1050B0004602C40FFE201B0E591C750A08420CD074
:1050C000E022920094466D07360B63441B05334380
:1050D000E40723432800190070BD002B14D1002DD4
:1050E0001BD02800FBF7A2F80A281CDC0B232E009B
:1050F0001B1ADE40030015339D400E4A3603121A78
:105100005205360B530DE1E7002D09D08022360BF6
:105110001203094B6D071643D8E700230026D5E795
:105120000026054BD2E703000B3B9D402E000025D7
:10513000E3E7C04689030000FF07000002004B00C0
:10514000F0B55B0D0C033D4E640A400F5F1CC90FA8
:105150000443D50037420AD039481E18FE2E16DD0A
:10516000FF200024C0052043C9070843F0BD002BE1
:1051700006D12C4326D005229201540AD8B2F1E779
:105180002543EDD08020C0030443FF20EAE7002E32
:105190001BDD9201531E9A41E4006D0F22432A4306
:1051A000530748D00F231340042B00D00432802330
:1051B000DB0413403FD0701CFE2ED1D09201540A64
:1051C000C0B2CFE700200024CCE73200173222DB48
:1051D0008020000420431E24A41B1F2C1DDD02225E
:1051E0005242961B0200F2401600202C04D0154AB1
:1051F00094466344984005432A00531E9A41324323
:1052000000265307CED180241300E404012023405C
:105210002242D3D1B0E70023ADE70B4A94462A00DF
:10522000E24014002A0063449A409840551EAA4167
:1052300002432243E4E733009EE7C046FE07000036
:1052400080FCFFFFA2FCFFFF82FCFFFFF8B5C04619
:10525000F8BC08BC9E467047F8B5C046F8BC08BC10
:045260009E467047AF
:1052640053746174653A2025730A000048040008E9
:10527400640400084C0400085004000854040008A6
:10528400580400085C0400080A0000001103000828
:10529400C902000800000000000000000000000037
:1052A400590300081103000800000000DB02000895
:1052B400000000000000000059030008110300086A
:1052C4000000000000000000490300080000000086
:1052D400590300081103000800000000000000004A
:1052E40000000000ED020008590300081103000843
:1052F40000000000000000000000000000000000AA
:105304005903000811030008000000000000000019
:1053140000000000000000005903000849646C65A7
:1053240000000000000000005374616E64627900A4
:105334000000000049676E69746572204F6E0000BA
:1053440056616C7665204F70656E000049676E6922
:10535400746572204F66660041626F727465640002
:1053640000000000504C414345484F4C4445520016
:105374000D0A536F6D7468696E672077656E7420CB
:1053840077726F6E6721204D4F56454420544F204D
:105394004552524F522053544154450D0A000000C7
:1053A4000D0A52657475726E656420746F206964A9
:1053B400656C2073746174650D0A000000000000C0
:1053C40000000000010203040607080900000000B1
:1053D40001020304030406080C1018203000000026
:1053E4005A2500088A25000890250008C4250008CD
:1053F4009C250008C4250008C4250008C42500080D
:10540400A2250008022500083E25000844250008BE
:10541400B825000850250008B8250008B82500085C
:10542400B82500080A250008232D302B2000686CBD
:105434004C006566674546470030313233343536B3
:1054440037383941424344454600303132333435EC
:105454003637383961626364656600008C3B000846
:10546400183B0008743A00082C3A0008743A000803
:10547400543B0008743A00082C3A0008183B000812
:10548400183B0008543B00082C3A0008323A000844
:10549400323A0008323A0008623B0008183B000820
:1054A400183B0008743A0008283A0008743A0008C7
:1054B400543B0008743A0008283A0008183B0008D6
:1054C400183B0008543B0008283A0008323A000808
:1054D400323A0008323A00085E3B00088C3C00086F
:1054E4005C3C00085C3C00085A3C0008603C000836
:1054F400603C0008A83D00085A3C0008603C0008D5
:10550400A83D0008603C00085A3C0008543D0008CF
:10551400543D0008543D0008E43D00080C460008D2
:10552400FA450008D845000802460008D845000896
:10553400DA480008D845000802460008FA45000881
:10554400FA450008DA48000802460008C445000885
:10555400C4450008C445000850490008024C00082E
:10556400C04B0008C04B0008BC4B0008C64B0008E9
:10557400C64B0008D24E0008BC4B0008C64B0008BE
:10558400D24E0008C64B0008BC4B0008664E00080B
:0C559400664E0008664E00083C4F000800
:0855A000E8DEFF7F01000000BE
:0455A800A90200084C
:0455AC008102000870
:1055B00006060600000020000100000004000000B4
:1055C00014000020000000000000000000000000A7
:1055D00000000000000000000000000000000000CB
:1055E00000000000000000000000000000000000BB
:1055F00000000000000000000000000000000000AB
:10560000000000000000000000000000000000009A
:10561000000000000000000000000000000000008A
:045620000000000086
:0400000508002AFDC8
:00000001FF
